{
	"Contract/function.sol": {
		"MyContract": {
			"abi": [
				{
					"inputs": [
						{
							"internalType": "uint256",
							"name": "a",
							"type": "uint256"
						},
						{
							"internalType": "uint256",
							"name": "b",
							"type": "uint256"
						}
					],
					"name": "addNumber",
					"outputs": [
						{
							"internalType": "uint256",
							"name": "",
							"type": "uint256"
						}
					],
					"stateMutability": "pure",
					"type": "function"
				},
				{
					"inputs": [],
					"name": "num",
					"outputs": [
						{
							"internalType": "uint256",
							"name": "",
							"type": "uint256"
						}
					],
					"stateMutability": "view",
					"type": "function"
				},
				{
					"inputs": [],
					"name": "viewNum",
					"outputs": [
						{
							"internalType": "uint256",
							"name": "",
							"type": "uint256"
						}
					],
					"stateMutability": "view",
					"type": "function"
				}
			],
			"devdoc": {
				"kind": "dev",
				"methods": {},
				"version": 1
			},
			"evm": {
				"assembly": "    /* \"Contract/function.sol\":66:319  contract MyContract {\r... */\n  mstore(0x40, 0x80)\n  callvalue\n  dup1\n  iszero\n  tag_1\n  jumpi\n  0x00\n  dup1\n  revert\ntag_1:\n  pop\n  dataSize(sub_0)\n  dup1\n  dataOffset(sub_0)\n  0x00\n  codecopy\n  0x00\n  return\nstop\n\nsub_0: assembly {\n        /* \"Contract/function.sol\":66:319  contract MyContract {\r... */\n      mstore(0x40, 0x80)\n      callvalue\n      dup1\n      iszero\n      tag_1\n      jumpi\n      0x00\n      dup1\n      revert\n    tag_1:\n      pop\n      jumpi(tag_2, lt(calldatasize, 0x04))\n      shr(0xe0, calldataload(0x00))\n      dup1\n      0x0f3d0204\n      eq\n      tag_3\n      jumpi\n      dup1\n      0x4e70b1dc\n      eq\n      tag_4\n      jumpi\n      dup1\n      0x54c5b148\n      eq\n      tag_5\n      jumpi\n    tag_2:\n      0x00\n      dup1\n      revert\n        /* \"Contract/function.sol\":202:316  function addNumber(uint a, uint b) public pure returns (uint) {\r... */\n    tag_3:\n      tag_6\n      0x04\n      dup1\n      calldatasize\n      sub\n      0x40\n      dup2\n      lt\n      iszero\n      tag_7\n      jumpi\n      0x00\n      dup1\n      revert\n    tag_7:\n      dup2\n      add\n      swap1\n      dup1\n      dup1\n      calldataload\n      swap1\n      0x20\n      add\n      swap1\n      swap3\n      swap2\n      swap1\n      dup1\n      calldataload\n      swap1\n      0x20\n      add\n      swap1\n      swap3\n      swap2\n      swap1\n      pop\n      pop\n      pop\n      tag_8\n      jump\t// in\n    tag_6:\n      mload(0x40)\n      dup1\n      dup3\n      dup2\n      mstore\n      0x20\n      add\n      swap2\n      pop\n      pop\n      mload(0x40)\n      dup1\n      swap2\n      sub\n      swap1\n      return\n        /* \"Contract/function.sol\":95:110  uint public num */\n    tag_4:\n      tag_9\n      tag_10\n      jump\t// in\n    tag_9:\n      mload(0x40)\n      dup1\n      dup3\n      dup2\n      mstore\n      0x20\n      add\n      swap2\n      pop\n      pop\n      mload(0x40)\n      dup1\n      swap2\n      sub\n      swap1\n      return\n        /* \"Contract/function.sol\":119:194  function viewNum() public view returns (uint) {\r... */\n    tag_5:\n      tag_11\n      tag_12\n      jump\t// in\n    tag_11:\n      mload(0x40)\n      dup1\n      dup3\n      dup2\n      mstore\n      0x20\n      add\n      swap2\n      pop\n      pop\n      mload(0x40)\n      dup1\n      swap2\n      sub\n      swap1\n      return\n        /* \"Contract/function.sol\":202:316  function addNumber(uint a, uint b) public pure returns (uint) {\r... */\n    tag_8:\n        /* \"Contract/function.sol\":258:262  uint */\n      0x00\n        /* \"Contract/function.sol\":275:281  uint c */\n      dup1\n        /* \"Contract/function.sol\":288:289  b */\n      dup3\n        /* \"Contract/function.sol\":284:285  a */\n      dup5\n        /* \"Contract/function.sol\":284:289  a + b */\n      add\n        /* \"Contract/function.sol\":275:289  uint c = a + b */\n      swap1\n      pop\n        /* \"Contract/function.sol\":307:308  c */\n      dup1\n        /* \"Contract/function.sol\":300:308  return c */\n      swap2\n      pop\n      pop\n        /* \"Contract/function.sol\":202:316  function addNumber(uint a, uint b) public pure returns (uint) {\r... */\n      swap3\n      swap2\n      pop\n      pop\n      jump\t// out\n        /* \"Contract/function.sol\":95:110  uint public num */\n    tag_10:\n      sload(0x00)\n      dup2\n      jump\t// out\n        /* \"Contract/function.sol\":119:194  function viewNum() public view returns (uint) {\r... */\n    tag_12:\n        /* \"Contract/function.sol\":159:163  uint */\n      0x00\n        /* \"Contract/function.sol\":183:186  num */\n      dup1\n      sload\n        /* \"Contract/function.sol\":176:186  return num */\n      swap1\n      pop\n        /* \"Contract/function.sol\":119:194  function viewNum() public view returns (uint) {\r... */\n      swap1\n      jump\t// out\n\n    auxdata: 0xa264697066735822122064ac12865c126efb84f5625a37fc7693876d2fdc8b8bdcbd656aa5451d308f4964736f6c634300060c0033\n}\n",
				"bytecode": {
					"linkReferences": {},
					"object": "608060405234801561001057600080fd5b50610119806100206000396000f3fe6080604052348015600f57600080fd5b5060043610603c5760003560e01c80630f3d02041460415780634e70b1dc14608a57806354c5b1481460a6575b600080fd5b607460048036036040811015605557600080fd5b81019080803590602001909291908035906020019092919050505060c2565b6040518082815260200191505060405180910390f35b609060d4565b6040518082815260200191505060405180910390f35b60ac60da565b6040518082815260200191505060405180910390f35b60008082840190508091505092915050565b60005481565b6000805490509056fea264697066735822122064ac12865c126efb84f5625a37fc7693876d2fdc8b8bdcbd656aa5451d308f4964736f6c634300060c0033",
					"opcodes": "PUSH1 0x80 PUSH1 0x40 MSTORE CALLVALUE DUP1 ISZERO PUSH2 0x10 JUMPI PUSH1 0x0 DUP1 REVERT JUMPDEST POP PUSH2 0x119 DUP1 PUSH2 0x20 PUSH1 0x0 CODECOPY PUSH1 0x0 RETURN INVALID PUSH1 0x80 PUSH1 0x40 MSTORE CALLVALUE DUP1 ISZERO PUSH1 0xF JUMPI PUSH1 0x0 DUP1 REVERT JUMPDEST POP PUSH1 0x4 CALLDATASIZE LT PUSH1 0x3C JUMPI PUSH1 0x0 CALLDATALOAD PUSH1 0xE0 SHR DUP1 PUSH4 0xF3D0204 EQ PUSH1 0x41 JUMPI DUP1 PUSH4 0x4E70B1DC EQ PUSH1 0x8A JUMPI DUP1 PUSH4 0x54C5B148 EQ PUSH1 0xA6 JUMPI JUMPDEST PUSH1 0x0 DUP1 REVERT JUMPDEST PUSH1 0x74 PUSH1 0x4 DUP1 CALLDATASIZE SUB PUSH1 0x40 DUP2 LT ISZERO PUSH1 0x55 JUMPI PUSH1 0x0 DUP1 REVERT JUMPDEST DUP2 ADD SWAP1 DUP1 DUP1 CALLDATALOAD SWAP1 PUSH1 0x20 ADD SWAP1 SWAP3 SWAP2 SWAP1 DUP1 CALLDATALOAD SWAP1 PUSH1 0x20 ADD SWAP1 SWAP3 SWAP2 SWAP1 POP POP POP PUSH1 0xC2 JUMP JUMPDEST PUSH1 0x40 MLOAD DUP1 DUP3 DUP2 MSTORE PUSH1 0x20 ADD SWAP2 POP POP PUSH1 0x40 MLOAD DUP1 SWAP2 SUB SWAP1 RETURN JUMPDEST PUSH1 0x90 PUSH1 0xD4 JUMP JUMPDEST PUSH1 0x40 MLOAD DUP1 DUP3 DUP2 MSTORE PUSH1 0x20 ADD SWAP2 POP POP PUSH1 0x40 MLOAD DUP1 SWAP2 SUB SWAP1 RETURN JUMPDEST PUSH1 0xAC PUSH1 0xDA JUMP JUMPDEST PUSH1 0x40 MLOAD DUP1 DUP3 DUP2 MSTORE PUSH1 0x20 ADD SWAP2 POP POP PUSH1 0x40 MLOAD DUP1 SWAP2 SUB SWAP1 RETURN JUMPDEST PUSH1 0x0 DUP1 DUP3 DUP5 ADD SWAP1 POP DUP1 SWAP2 POP POP SWAP3 SWAP2 POP POP JUMP JUMPDEST PUSH1 0x0 SLOAD DUP2 JUMP JUMPDEST PUSH1 0x0 DUP1 SLOAD SWAP1 POP SWAP1 JUMP INVALID LOG2 PUSH5 0x6970667358 0x22 SLT KECCAK256 PUSH5 0xAC12865C12 PUSH15 0xFB84F5625A37FC7693876D2FDC8B8B 0xDC 0xBD PUSH6 0x6AA5451D308F 0x49 PUSH5 0x736F6C6343 STOP MOD 0xC STOP CALLER "
				},
				"gasEstimates": {
					"creation": {
						"codeDepositCost": "56200",
						"executionCost": "105",
						"totalCost": "56305"
					},
					"external": {
						"addNumber(uint256,uint256)": "326",
						"num()": "1005",
						"viewNum()": "1035"
					}
				},
				"methodIdentifiers": {
					"addNumber(uint256,uint256)": "0f3d0204",
					"num()": "4e70b1dc",
					"viewNum()": "54c5b148"
				}
			},
			"storageLayout": {
				"storage": [
					{
						"astId": 3,
						"contract": "Contract/function.sol:MyContract",
						"label": "num",
						"offset": 0,
						"slot": "0",
						"type": "t_uint256"
					}
				],
				"types": {
					"t_uint256": {
						"encoding": "inplace",
						"label": "uint256",
						"numberOfBytes": "32"
					}
				}
			},
			"userdoc": {
				"kind": "user",
				"methods": {},
				"version": 1
			}
		}
	}
}