{
	"Contract/variables.sol": {
		"MyContract": {
			"abi": [
				{
					"inputs": [],
					"name": "myFunction",
					"outputs": [],
					"stateMutability": "nonpayable",
					"type": "function"
				},
				{
					"inputs": [],
					"name": "newFunction",
					"outputs": [
						{
							"internalType": "address",
							"name": "",
							"type": "address"
						}
					],
					"stateMutability": "view",
					"type": "function"
				},
				{
					"inputs": [],
					"name": "number1",
					"outputs": [
						{
							"internalType": "uint256",
							"name": "",
							"type": "uint256"
						}
					],
					"stateMutability": "view",
					"type": "function"
				}
			],
			"devdoc": {
				"kind": "dev",
				"methods": {},
				"version": 1
			},
			"evm": {
				"assembly": "    /* \"Contract/variables.sol\":66:318  contract MyContract {\r... */\n  mstore(0x40, 0x80)\n  callvalue\n  dup1\n  iszero\n  tag_1\n  jumpi\n  0x00\n  dup1\n  revert\ntag_1:\n  pop\n  dataSize(sub_0)\n  dup1\n  dataOffset(sub_0)\n  0x00\n  codecopy\n  0x00\n  return\nstop\n\nsub_0: assembly {\n        /* \"Contract/variables.sol\":66:318  contract MyContract {\r... */\n      mstore(0x40, 0x80)\n      callvalue\n      dup1\n      iszero\n      tag_1\n      jumpi\n      0x00\n      dup1\n      revert\n    tag_1:\n      pop\n      jumpi(tag_2, lt(calldatasize, 0x04))\n      shr(0xe0, calldataload(0x00))\n      dup1\n      0x1b28d63e\n      eq\n      tag_3\n      jumpi\n      dup1\n      0xc223a39e\n      eq\n      tag_4\n      jumpi\n      dup1\n      0xc3780a3a\n      eq\n      tag_5\n      jumpi\n    tag_2:\n      0x00\n      dup1\n      revert\n        /* \"Contract/variables.sol\":186:315  function newFunction() public view returns (address) {\r... */\n    tag_3:\n      tag_6\n      tag_7\n      jump\t// in\n    tag_6:\n      mload(0x40)\n      dup1\n      dup3\n      0xffffffffffffffffffffffffffffffffffffffff\n      and\n      dup2\n      mstore\n      0x20\n      add\n      swap2\n      pop\n      pop\n      mload(0x40)\n      dup1\n      swap2\n      sub\n      swap1\n      return\n        /* \"Contract/variables.sol\":93:112  uint public number1 */\n    tag_4:\n      tag_8\n      tag_9\n      jump\t// in\n    tag_8:\n      mload(0x40)\n      dup1\n      dup3\n      dup2\n      mstore\n      0x20\n      add\n      swap2\n      pop\n      pop\n      mload(0x40)\n      dup1\n      swap2\n      sub\n      swap1\n      return\n        /* \"Contract/variables.sol\":121:178  function  myFunction() public {\r... */\n    tag_5:\n      tag_10\n      tag_11\n      jump\t// in\n    tag_10:\n      stop\n        /* \"Contract/variables.sol\":186:315  function newFunction() public view returns (address) {\r... */\n    tag_7:\n        /* \"Contract/variables.sol\":230:237  address */\n      0x00\n        /* \"Contract/variables.sol\":250:267  address myAddress */\n      dup1\n        /* \"Contract/variables.sol\":270:280  msg.sender */\n      caller\n        /* \"Contract/variables.sol\":250:280  address myAddress = msg.sender */\n      swap1\n      pop\n        /* \"Contract/variables.sol\":298:307  myAddress */\n      dup1\n        /* \"Contract/variables.sol\":291:307  return myAddress */\n      swap2\n      pop\n      pop\n        /* \"Contract/variables.sol\":186:315  function newFunction() public view returns (address) {\r... */\n      swap1\n      jump\t// out\n        /* \"Contract/variables.sol\":93:112  uint public number1 */\n    tag_9:\n      sload(0x00)\n      dup2\n      jump\t// out\n        /* \"Contract/variables.sol\":121:178  function  myFunction() public {\r... */\n    tag_11:\n      jump\t// out\n\n    auxdata: 0xa26469706673582212200dfc2750b6bcf14b4a8810612158897306256b7b085a5b646782c21ce42a0fb564736f6c634300060c0033\n}\n",
				"bytecode": {
					"linkReferences": {},
					"object": "608060405234801561001057600080fd5b5060e28061001f6000396000f3fe6080604052348015600f57600080fd5b5060043610603c5760003560e01c80631b28d63e146041578063c223a39e146073578063c3780a3a14608f575b600080fd5b60476097565b604051808273ffffffffffffffffffffffffffffffffffffffff16815260200191505060405180910390f35b607960a4565b6040518082815260200191505060405180910390f35b609560aa565b005b6000803390508091505090565b60005481565b56fea26469706673582212200dfc2750b6bcf14b4a8810612158897306256b7b085a5b646782c21ce42a0fb564736f6c634300060c0033",
					"opcodes": "PUSH1 0x80 PUSH1 0x40 MSTORE CALLVALUE DUP1 ISZERO PUSH2 0x10 JUMPI PUSH1 0x0 DUP1 REVERT JUMPDEST POP PUSH1 0xE2 DUP1 PUSH2 0x1F PUSH1 0x0 CODECOPY PUSH1 0x0 RETURN INVALID PUSH1 0x80 PUSH1 0x40 MSTORE CALLVALUE DUP1 ISZERO PUSH1 0xF JUMPI PUSH1 0x0 DUP1 REVERT JUMPDEST POP PUSH1 0x4 CALLDATASIZE LT PUSH1 0x3C JUMPI PUSH1 0x0 CALLDATALOAD PUSH1 0xE0 SHR DUP1 PUSH4 0x1B28D63E EQ PUSH1 0x41 JUMPI DUP1 PUSH4 0xC223A39E EQ PUSH1 0x73 JUMPI DUP1 PUSH4 0xC3780A3A EQ PUSH1 0x8F JUMPI JUMPDEST PUSH1 0x0 DUP1 REVERT JUMPDEST PUSH1 0x47 PUSH1 0x97 JUMP JUMPDEST PUSH1 0x40 MLOAD DUP1 DUP3 PUSH20 0xFFFFFFFFFFFFFFFFFFFFFFFFFFFFFFFFFFFFFFFF AND DUP2 MSTORE PUSH1 0x20 ADD SWAP2 POP POP PUSH1 0x40 MLOAD DUP1 SWAP2 SUB SWAP1 RETURN JUMPDEST PUSH1 0x79 PUSH1 0xA4 JUMP JUMPDEST PUSH1 0x40 MLOAD DUP1 DUP3 DUP2 MSTORE PUSH1 0x20 ADD SWAP2 POP POP PUSH1 0x40 MLOAD DUP1 SWAP2 SUB SWAP1 RETURN JUMPDEST PUSH1 0x95 PUSH1 0xAA JUMP JUMPDEST STOP JUMPDEST PUSH1 0x0 DUP1 CALLER SWAP1 POP DUP1 SWAP2 POP POP SWAP1 JUMP JUMPDEST PUSH1 0x0 SLOAD DUP2 JUMP JUMPDEST JUMP INVALID LOG2 PUSH5 0x6970667358 0x22 SLT KECCAK256 0xD 0xFC 0x27 POP 0xB6 0xBC CALL 0x4B 0x4A DUP9 LT PUSH2 0x2158 DUP10 PUSH20 0x6256B7B085A5B646782C21CE42A0FB564736F6C PUSH4 0x4300060C STOP CALLER "
				},
				"gasEstimates": {
					"creation": {
						"codeDepositCost": "45200",
						"executionCost": "99",
						"totalCost": "45299"
					},
					"external": {
						"myFunction()": "166",
						"newFunction()": "209",
						"number1()": "1005"
					}
				},
				"methodIdentifiers": {
					"myFunction()": "c3780a3a",
					"newFunction()": "1b28d63e",
					"number1()": "c223a39e"
				}
			},
			"storageLayout": {
				"storage": [
					{
						"astId": 3,
						"contract": "Contract/variables.sol:MyContract",
						"label": "number1",
						"offset": 0,
						"slot": "0",
						"type": "t_uint256"
					}
				],
				"types": {
					"t_uint256": {
						"encoding": "inplace",
						"label": "uint256",
						"numberOfBytes": "32"
					}
				}
			},
			"userdoc": {
				"kind": "user",
				"methods": {},
				"version": 1
			}
		}
	}
}